{
    "contractName": "Voting",
    "abi": [
        {
            "inputs": [
                {
                    "internalType": "bytes32[]",
                    "name": "candidateNames",
                    "type": "bytes32[]"
                }
            ],
            "payable": false,
            "stateMutability": "nonpayable",
            "type": "constructor"
        },
        {
            "constant": true,
            "inputs": [
                {
                    "internalType": "uint256",
                    "name": "",
                    "type": "uint256"
                }
            ],
            "name": "candidateList",
            "outputs": [
                {
                    "internalType": "bytes32",
                    "name": "",
                    "type": "bytes32"
                }
            ],
            "payable": false,
            "stateMutability": "view",
            "type": "function"
        },
        {
            "constant": true,
            "inputs": [
                {
                    "internalType": "bytes32",
                    "name": "",
                    "type": "bytes32"
                }
            ],
            "name": "votesReceived",
            "outputs": [
                {
                    "internalType": "uint256",
                    "name": "",
                    "type": "uint256"
                }
            ],
            "payable": false,
            "stateMutability": "view",
            "type": "function"
        },
        {
            "constant": true,
            "inputs": [
                {
                    "internalType": "bytes32",
                    "name": "candidate",
                    "type": "bytes32"
                }
            ],
            "name": "totalVotesFor",
            "outputs": [
                {
                    "internalType": "uint256",
                    "name": "",
                    "type": "uint256"
                }
            ],
            "payable": false,
            "stateMutability": "view",
            "type": "function"
        },
        {
            "constant": false,
            "inputs": [
                {
                    "internalType": "bytes32",
                    "name": "candidate",
                    "type": "bytes32"
                }
            ],
            "name": "voteForCandidate",
            "outputs": [],
            "payable": false,
            "stateMutability": "nonpayable",
            "type": "function"
        },
        {
            "constant": true,
            "inputs": [
                {
                    "internalType": "bytes32",
                    "name": "candidate",
                    "type": "bytes32"
                }
            ],
            "name": "validCandidate",
            "outputs": [
                {
                    "internalType": "bool",
                    "name": "",
                    "type": "bool"
                }
            ],
            "payable": false,
            "stateMutability": "view",
            "type": "function"
        }
    ],
    "bytecode": "0x608060405234801561001057600080fd5b506040516104263803806104268339818101604052602081101561003357600080fd5b810190808051604051939291908464010000000082111561005357600080fd5b8382019150602082018581111561006957600080fd5b825186602082028301116401000000008211171561008657600080fd5b8083526020830192505050908051906020019060200280838360005b838110156100bd5780820151818401526020810190506100a2565b5050505090500160405250505080600190805190602001906100e09291906100e7565b5050610159565b828054828255906000526020600020908101928215610123579160200282015b82811115610122578251825591602001919060010190610107565b5b5090506101309190610134565b5090565b61015691905b8082111561015257600081600090555060010161013a565b5090565b90565b6102be806101686000396000f3fe608060405234801561001057600080fd5b50600436106100575760003560e01c80632f265cf71461005c578063392e66781461009e5780637021939f146100e4578063b13c744b14610126578063cc9ab26714610168575b600080fd5b6100886004803603602081101561007257600080fd5b8101908080359060200190929190505050610196565b6040518082815260200191505060405180910390f35b6100ca600480360360208110156100b457600080fd5b81019080803590602001909291905050506101c4565b604051808215151515815260200191505060405180910390f35b610110600480360360208110156100fa57600080fd5b810190808035906020019092919050505061021a565b6040518082815260200191505060405180910390f35b6101526004803603602081101561013c57600080fd5b8101908080359060200190929190505050610232565b6040518082815260200191505060405180910390f35b6101946004803603602081101561017e57600080fd5b8101908080359060200190929190505050610253565b005b60006101a1826101c4565b6101aa57600080fd5b600080838152602001908152602001600020549050919050565b600080600090505b60018054905081101561020f5782600182815481106101e757fe5b90600052602060002001541415610202576001915050610215565b80806001019150506101cc565b50600090505b919050565b60006020528060005260406000206000915090505481565b6001818154811061023f57fe5b906000526020600020016000915090505481565b61025c816101c4565b61026557600080fd5b6001600080838152602001908152602001600020600082825401925050819055505056fea265627a7a72315820cacc6429d34b00fc17c9fb4efec9d1bceb5d69f282a20496f910385ed7c9f75864736f6c63430005100032",
    "source": "// SPDX-License-Identifier: MIT\npragma solidity >=0.5.0;\n\ncontract Voting {\n    mapping(bytes32 => uint256) public votesReceived;\n\n    bytes32[] public candidateList;\n\n    constructor(bytes32[] memory candidateNames) public {\n        candidateList = candidateNames;\n    }\n\n    function totalVotesFor(bytes32 candidate) public view returns (uint256) {\n        require(validCandidate(candidate));\n        return votesReceived[candidate];\n    }\n\n    function voteForCandidate(bytes32 candidate) public {\n        require(validCandidate(candidate));\n        votesReceived[candidate] += 1;\n    }\n\n    function validCandidate(bytes32 candidate) public view returns (bool) {\n        for (uint256 i = 0; i < candidateList.length; i++) {\n            if (candidateList[i] == candidate) {\n                return true;\n            }\n        }\n        return false;\n    }\n}\n",
    "sourcePath": "/Users/kcloud/tb/eth/contracts/Voting.sol",
    "compiler": {
        "name": "solc",
        "version": "0.5.16+commit.9c3226ce.Emscripten.clang"
    },
    "schemaVersion": "3.3.4",
    "updatedAt": "2021-02-25T03:22:50.257Z",
    "networkType": "ethereum",
    "devdoc": {
        "methods": {}
    },
    "userdoc": {
        "methods": {}
    }
}